:020000040000fa
:080000000002040000000000f2
:020000040000fa
:040008000a030000e7
:020000040000fa
:04000c004c030000a1
:020000040000fa
:04001000ac0300003d
:020000040000fa
:040014002a030000bb
:020000040000fa
:040018006c03000075
:020000040000fa
:04001c008c03000051
:020000040000fa
:04002000cc0300000d
:020000040000fa
:04002400760400005e
:020000040000fa
:04002800760400005a
:020000040000fa
:04002c007604000056
:020000040000fa
:040030007604000052
:020000040000fa
:04003400760400004e
:020000040000fa
:04003800760400004a
:020000040000fa
:04003c007604000046
:020000040000fa
:040040007604000042
:020000040000fa
:04004400460400006e
:020000040000fa
:04004800760400003a
:020000040000fa
:04004c007604000036
:020000040000fa
:040050007604000032
:020000040000fa
:04005400760400002e
:020000040000fa
:04005800760400002a
:020000040000fa
:04005c007604000026
:020000040000fa
:040060007604000022
:020000040000fa
:04006400760400001e
:020000040000fa
:04006800760400001a
:020000040000fa
:04006c007604000016
:020000040000fa
:040070007604000012
:020000040000fa
:04007400180400006c
:020000040000fa
:04007800760400000a
:020000040000fa
:04007c007604000006
:020000040000fa
:040080007604000002
:020000040000fa
:0400840076040000fe
:020000040000fa
:0400880076040000fa
:020000040000fa
:04008c0076040000f6
:020000040000fa
:0400900076040000f2
:020000040000fa
:0400940076040000ee
:020000040000fa
:0400980076040000ea
:020000040000fa
:04009c0076040000e6
:020000040000fa
:0400a00076040000e2
:020000040000fa
:0400a40076040000de
:020000040000fa
:0400a80076040000da
:020000040000fa
:0400ac0076040000d6
:020000040000fa
:0400b00076040000d2
:020000040000fa
:0400b40076040000ce
:020000040000fa
:0400b80076040000ca
:020000040000fa
:0400bc0076040000c6
:020000040000fa
:0400c00076040000c2
:020000040000fa
:0400c40076040000be
:020000040000fa
:0400c80076040000ba
:020000040000fa
:0400cc0076040000b6
:020000040000fa
:0400d00076040000b2
:020000040000fa
:0400d40076040000ae
:020000040000fa
:0400d80076040000aa
:020000040000fa
:0400dc0076040000a6
:020000040000fa
:0400e00076040000a2
:020000040000fa
:0400e400760400009e
:020000040000fa
:0400e800760400009a
:020000040000fa
:0400ec007604000096
:020000040000fa
:0400f0007604000092
:020000040000fa
:0400f400760400008e
:020000040000fa
:0400f800760400008a
:020000040000fa
:0400fc007604000086
:020000040000fa
:040100007604000081
:020000040000fa
:04010400760400007d
:020000040000fa
:040108007604000079
:020000040000fa
:04010c007604000075
:020000040000fa
:040110007604000071
:020000040000fa
:04011400760400006d
:020000040000fa
:040118007604000069
:020000040000fa
:04011c007604000065
:020000040000fa
:040120007604000061
:020000040000fa
:04012400760400005d
:020000040000fa
:040128007604000059
:020000040000fa
:04012c007604000055
:020000040000fa
:040130007604000051
:020000040000fa
:04013400760400004d
:020000040000fa
:040138007604000049
:020000040000fa
:04013c007604000045
:020000040000fa
:040140007604000041
:020000040000fa
:04014400760400003d
:020000040000fa
:040148007604000039
:020000040000fa
:04014c007604000035
:020000040000fa
:040150007604000031
:020000040000fa
:04015400760400002d
:020000040000fa
:040158007604000029
:020000040000fa
:04015c007604000025
:020000040000fa
:040160007604000021
:020000040000fa
:04016400760400001d
:020000040000fa
:040168007604000019
:020000040000fa
:04016c007604000015
:020000040000fa
:040170007604000011
:020000040000fa
:04017400760400000d
:020000040000fa
:040178007604000009
:020000040000fa
:04017c007604000005
:020000040000fa
:040180007604000001
:020000040000fa
:0401840076040000fd
:020000040000fa
:0401880076040000f9
:020000040000fa
:04018c0076040000f5
:020000040000fa
:0401900076040000f1
:020000040000fa
:0401940076040000ed
:020000040000fa
:0401980076040000e9
:020000040000fa
:04019c0076040000e5
:020000040000fa
:0401a00076040000e1
:020000040000fa
:0401a40076040000dd
:020000040000fa
:0401a80076040000d9
:020000040000fa
:0401ac0076040000d5
:020000040000fa
:0401b00076040000d1
:020000040000fa
:0401b40076040000cd
:020000040000fa
:0401b80076040000c9
:020000040000fa
:0401bc0076040000c5
:020000040000fa
:0401c00076040000c1
:020000040000fa
:0401c40076040000bd
:020000040000fa
:0401c80076040000b9
:020000040000fa
:0401cc0076040000b5
:020000040000fa
:0401d00076040000b1
:020000040000fa
:0401d40076040000ad
:020000040000fa
:0401d80076040000a9
:020000040000fa
:0401dc0076040000a5
:020000040000fa
:0401e00076040000a1
:020000040000fa
:0401e400760400009d
:020000040000fa
:0401e8007604000099
:020000040000fa
:0401ec007604000095
:020000040000fa
:0401f0007604000091
:020000040000fa
:0401f400760400008d
:020000040000fa
:0401f8007604000089
:020000040000fa
:0401fc007604000085
:020000040000fa
:040200007604000080
:020000040000fa
:04020400760400007c
:020000040000fa
:040208007604000078
:020000040000fa
:04020c007604000074
:020000040000fa
:040210007604000070
:020000040000fa
:04021400760400006c
:020000040000fa
:040218007604000068
:020000040000fa
:04021c007604000064
:020000040000fa
:040220007604000060
:020000040000fa
:04022400760400005c
:020000040000fa
:040228007604000058
:020000040000fa
:04022c007604000054
:020000040000fa
:040230007604000050
:020000040000fa
:04023400760400004c
:020000040000fa
:040238007604000048
:020000040000fa
:04023c007604000044
:020000040000fa
:040240007604000040
:020000040000fa
:04024400760400003c
:020000040000fa
:040248007604000038
:020000040000fa
:04024c007604000034
:020000040000fa
:040250007604000030
:020000040000fa
:04025400760400002c
:020000040000fa
:040258007604000028
:020000040000fa
:04025c007604000024
:020000040000fa
:040260007604000020
:020000040000fa
:04026400760400001c
:020000040000fa
:040268007604000018
:020000040000fa
:04026c007604000014
:020000040000fa
:040270007604000010
:020000040000fa
:04027400760400000c
:020000040000fa
:040278007604000008
:020000040000fa
:04027c007604000004
:020000040000fa
:040280007604000000
:020000040000fa
:0402840076040000fc
:020000040000fa
:0402880076040000f8
:020000040000fa
:04028c0076040000f4
:020000040000fa
:0402900076040000f0
:020000040000fa
:0402940076040000ec
:020000040000fa
:0402980076040000e8
:020000040000fa
:04029c0076040000e4
:020000040000fa
:0402a00076040000e0
:020000040000fa
:0402a40076040000dc
:020000040000fa
:0402a80076040000d8
:020000040000fa
:0402ac0076040000d4
:020000040000fa
:0402b00076040000d0
:020000040000fa
:0402b40076040000cc
:020000040000fa
:0402b80076040000c8
:020000040000fa
:0402bc0076040000c4
:020000040000fa
:0402c00076040000c0
:020000040000fa
:0402c40076040000bc
:020000040000fa
:0402c80076040000b8
:020000040000fa
:0402cc0076040000b4
:020000040000fa
:0402d00076040000b0
:020000040000fa
:0402d40076040000ac
:020000040000fa
:0402d80076040000a8
:020000040000fa
:0402dc0076040000a4
:020000040000fa
:0402e00076040000a0
:020000040000fa
:0402e400760400009c
:020000040000fa
:0402e8007604000098
:020000040000fa
:0402ec007604000094
:020000040000fa
:0402f0007604000090
:020000040000fa
:0402f400760400008c
:020000040000fa
:0402f8007604000088
:020000040000fa
:0402fc007604000084
:020000040000fa
:04030000760400007f
:020000040000fa
:04030400760400007b
:020000040000fa
:040308007604000077
:020000040000fa
:04030c007604000073
:020000040000fa
:04031000760400006f
:020000040000fa
:10040000cf6c21000eff21000e01880000000000cb
:10041000000020000000e000020032000001200087
:100420002002880014000700320107000000e000ed
:1004300003003a008048200001002000020037003d
:100440000000200001002000810f70000100320038
:100450000f000700000020000000e0000200320052
:100460000000020000000000da0a020000000000a4
:100470000040da000000fe00200020000000e00044
:1004800002003200100020009001880000000600e9
:10049000a1028800800478000000eb001f003700f4
:1004a000e284440054a0b4009905ba00e2844400f8
:1004b00054a0b4009906ba00e284440054a0b400e9
:1004c0000006eb00476fde00fd07b200ae018800ba
:1004d000636ce10003003a000ad801000000eb0061
:1004e0000e003700606ce10008003a00004deb00a0
:1004f0000a05e800020039003420ec000af0a000f0
:100500008b05e900f9ff3e00040037006168e10057
:10051000010032000086eb000b00070019c7ba008b
:100520000e04e0001905ba0003003a000a00e000da
:10053000dbff3a0000000600fe07b200ae028800b2
:100540008a047800f5ff37000cd0a300e20f4d00bd
:100550001c00390089027800354dba000a05e80010
:10056000020039003420ec000af0a0008b05e900fd
:100570000f003200254dba000a05e80002003900dc
:100580003420ec000af0a0008b05e90008003200de
:100590000c00e0000600320015cdba000a05e800a4
:1005a000020039003420ec000af0a0008b05e900bd
:1005b0008984e80054a0b4000b00e000e2ff3a0098
:1005c000000006009902ba00055d78008b05e9007d
:1005d000f7ff3200c82ade00055d78008b05e900d0
:1005e000f3ff32000c00e000f1ff320019ddba0029
:1005f000eeff3700000000000000000000000000d7
:1006000000000000000000000000000000000000ea
:10061000000000003600f800809fbe00829fbe00f0
:10062000849fbe00869fbe000000fa00c028a9007b
:100630000000eb00210a07000080fa004f03be0013
:100640004f02be004f01be004f00be003600f90051
:10065000004006003600f800809fbe00829fbe006a
:10066000849fbe00869fbe000000fa00180a0700a3
:10067000c048a90010002000100a07000080fa00fe
:100680004f03be004f02be004f01be004f00be0030
:100690003600f900004006003600f800809fbe00da
:1006a000829fbe00849fbe00869fbe000000fa00ad
:1006b000c068a90020002000000a07000080fa009e
:1006c0004f03be004f02be004f01be004f00be00f0
:1006d0003600f900004006003600f800809fbe009a
:1006e000829fbe00849fbe00869fbe000000fa006d
:1006f000c088a90030002000f00907000080fa003f
:100700004f03be004f02be004f01be004f00be00af
:100710003600f900004006003600f800809fbe0059
:10072000829fbe00849fbe00869fbe000000fa002c
:10073000c0a8a90040002000e00907000080fa00de
:100740004f03be004f02be004f01be004f00be006f
:100750003600f900004006003600f800809fbe0019
:10076000829fbe00849fbe00869fbe000000fa00ec
:10077000c608a90070002000d00907000080fa0018
:100780004f03be004f02be004f01be004f00be002f
:100790003600f900004006003600f800809fbe00d9
:1007a000829fbe00849fbe00869fbe000000fa00ac
:1007b0002146800000102000008060000000e00062
:1007c00003003200c508a900c0002000bb090700d3
:1007d0002146800000002800008060000000e0004a
:1007e00003003200c5e8a90080002000b30907001b
:1007f0002146800000022000008060000000e00030
:1008000003003200c4a8a90090002000ab09070033
:1008100020468000700060000000e000030032000d
:10082000c488a900a0002000a4090700ffff37002a
:100830003600f800809fbe00829fbe00849fbe00ed
:10084000869fbe000000fa00104080006800600033
:100850000000e0000600320050b680000000e0001a
:100860000200320050b68000000001000268a900ba
:100870000080fa004f03be004f02be004f01be00d1
:100880004f00be003600f900004006003600f800b8
:10089000809fbe00829fbe00849fbe00869fbe00d8
:1008a0000000fa0020b680000000e00002003200e4
:1008b00020b6800000000100c7d6bf000040e8005d
:1008c000c7f6b70010c0b300c6f6b70000e8a9002d
:1008d0000080fa004f03be004f02be004f01be0071
:1008e0004f00be003600f900004006000040da006c
:1008f0000000fe0000000500800078000101780083
:100900003104e000fdff3a00000051000000060045
:020000040000fa
:10091000c81600000200000082000000ffff000077
:10092000a4160000200000008000000068160000ef
:100930003c0000008000000000100000680600007d
:10094000820000000000ff00ffb9e80091d35500cd
:10095000c0d9ae00f49e8100905e83006d77910057
:100960006cb36200ba59910051274a0069434900ab
:100970003db63700a6320b002edc29000d2698006c
:1009800022731f00971cfd0019a117007b1587001b
:1009900013c011002310ac000e560d00200c0600f1
:1009a0000b050a001c09480008870700d806390013
:1009b00006a805002405ad000440040040f7c60069
:1009c000e057cc00c3b9e000a8869900918bcc0019
:1009d000320c1f005b16780011550e00270c8c009e
:1009e0000a51090058088e0007e706005a06e2007f
:1009f000057b05002105d200048b04004d0429006d
:100a000008c407006707140007c7060080063f00f8
:100a100006d405007605240005da040099045e007a
:100a200004510800f007970007460700fc06b700ce
:100a3000067706003c06040006d10500a1057400f7
:100a4000054905002205fc0004d80400b7049700fe
:100a5000047904005c048200084e08001c08ed00c4
:100a600007c0070095076b00074407001e07f90041
:100a700006d60600b50694000675060057063a002d
:100a8000061e06000306e90005d00500b7059f0015
:100a90000589050072055d00054805003405200044
:100aa000050d0500fb04e90004d70400c604b600e8
:100ab00004a6040096048700047804006a045b001e
:100ac000044e040080086600084c080033081b0030
:100ad00008030800ec07d50007bf0700a90794002a
:100ae000077f07006a0756000743070030071d000d
:100af000070a0700f806e70006d50600c406b4009a
:100b000006a30600930684000674060065065600d8
:100b10000647060039062b00061d06000f060200d8
:100b200006f50500e805db0005cf0500c205b600a7
:100b300005aa05009f059300058805007d05720044
:100b4000056705005c055200054805003d053300ba
:100b5000052a050020051600050d05000405fa000c
:100b600004f10400e804e00004d70400ce04c60049
:100b700004be0400b504ad0004a504009d04960065
:100b8000048e040086047f00047804007004690069
:100b9000046204005b045400044d04004604400059
:100ba0000439040033042c00040006000606060085
:100bb00006060600060606000606060006060600ed
:100bc00006060600060606000606060006060600dd
:100bd00006060600060606000606060006060600cd
:100be00006060600060000000000000000000000ed
:100bf00000000000000000000000000000000000f5
:100c000000000000000000000000000000000000e4
:100c100000000000000000000000000000000000d4
:100c200000000000000000000000000000000000c4
:100c300000000000000000000000000000000000b4
:100c400000000000000000000000000000000000a4
:100c50000000000000000000000000000000000094
:100c60000000000000000000000000000000000084
:100c70000000000000000000000000000000000074
:100c80000000000000000000000000000000000064
:100c90000000000000000000000000000000000054
:100ca0000000000000000000000000000000000044
:100cb0000000000000000000000000000000000034
:100cc0000000000000000000000000000000000024
:100cd0000000000000000000000000000001010012
:100ce00001010100010101000101010001010100f8
:100cf00001010100010101000101010001010100e8
:100d000001010100010101000101010001010100d7
:100d100001010100010101000101010001010100c7
:100d200001010100010101000101010001010100b7
:100d300001010100010101000100000000000000ac
:100d4000000000000000000000000100010101009f
:100d50000101010001010100010101000101010087
:100d6000010101000100000000000000000000007f
:100d70000000000000000000000000000000000073
:100d80000000000000000000000000000000000063
:100d90000000000000000000000000000101010050
:100da0000101010001010100010101000101010037
:100db0000101010001010100010101000101010027
:100dc0000101010001010100010101000101010017
:100dd0000101010001010100010101000101010007
:100de00001010100010101000101010001010100f7
:100df00001010100010101000101010001010100e7
:100e000001010100010101000101010001010000d7
:100e100001010100010101000101010001010100c6
:100e200001010100010101000101010001010100b6
:100e300001010100010101000101010001010100a6
:100e40000101010001010100010101000101010096
:100e50000101010001010100010101000101010086
:100e60000101010001010100010101000101010076
:100e70000101010001010100010101000100000068
:100e80000000000000000000000000000000000062
:100e90000000000000000000000000000000000052
:100ea0000000000000000000000000000000000042
:100eb0000000000000000000000000000000000032
:100ec0000000000000000000000000000000010021
:100ed0000101010001010100010101000101010006
:100ee00001010100010101000101010001010100f6
:100ef00001010100010101000101010001010100e6
:100f000001010100010101000101010001010100d5
:100f100001010100010101000101010001010100c5
:100f200001010100010101000101010001010100b5
:100f300001010100010101000101010001010100a5
:100f40000100010001010100010101000101010096
:100f50000101010001010100010101000101010085
:100f60000101010001010100010101000101010075
:100f70000101010001010100010101000101010065
:100f80000101010001010100010101000101010055
:100f90000101010001010100010101000101010045
:100fa0000101010001010100010101000101010035
:100fb0000101010001010100010101000101010025
:100fc0000101010001010100010101000101010015
:100fd0000101010001010100010101000101010005
:100fe00001010100010101000101010001010100f5
:100ff00001010100010101000101010001010100e5
:1010000001000000000000000000000000000000df
:1010100000000000000000000000000000000000d0
:1010200000000000000000000000000000000000c0
:1010300000000000000000000000000000000000b0
:1010400000000000000000000000000000000000a0
:101050000000000000000000000000000000000090
:101060000000000000000000000000000000000080
:10107000000000000001020003040500060708004c
:10108000090a0b000c0d0e000f10110012131400b2
:101090001516170018191a001b1c1d001e1f200012
:1010a0002122230024252600272829002a2b2c0072
:1010b0002d2e2f00303132003334350036373800d2
:1010c000393a3b003c3d3e003f4041004243440032
:1010d0004546470048494a004b4c4f00525558007e
:1010e0005b5e610064676a006d70730076797c00f6
:1010f0007f828500888b8e00919497009a9da00036
:10110000a3a6a900acafb200b5b8bb00bec1c40075
:10111000c7cacd00d0d3d600d9dcdf00e2e5e500b8
:101120000032340036383a003c3e4000424345002d
:10113000464749004a4c4d004e505100525455000c
:10114000575859005b5c5d005f6062006364660035
:1011500067686a006b6d6e006f7172007375760060
:1011600078797a007c7d7f00808183008485870088
:10117000888a8b008c8e8f009092930095969700b2
:10118000999a9b009d9ea000a1a2a400a5a6a800dc
:10119000a9abac00adafb000b2b3b400b6b7b80005
:1011a000babbbd00bebfc100c2c3c500c6c8c9002e
:1011b000cacccd00ced0d100d3d4d500d7d8d90059
:1011c000dbdcde00dfe0e200e3e5e50080000000bc
:1011d000ca1600000200000080000000c4160000d3
:0c11e0000400000080000000000000007f
:020000040000fa
:1011ec000000fa0001eca8000080fa0000000600e4
:1011fc000000fa0001eca9000080fa0000000600d3
:10120c000200fa00000f78001e007800e10f500079
:10121c0009003200e10f500005003900e20f5000c8
:10122c0007003200e30f50000700320008003700bf
:10123c0001eba8000600370011eba80004003700f2
:10124c0021eba8000200370031eba80000000000e1
:10125c000080fa00000006000400fa00000f78007d
:10126c00110798001e007800e10f50000b003200af
:10127c00e10f500005003900e20f50000b00320066
:10128c00e30f50000d003200100037009e0090005c
:10129c0021588800062bef000c0037009e009000b0
:1012ac00a1588800162bef00080037009e00900014
:1012bc0021598800262bef00040037009e00900077
:1012cc00a1598800362bef00000000000080fa00c6
:1012dc00000006000400fa00000f780011079800c7
:1012ec001e007800e10f50000a003200e10f5000a0
:1012fc0005003900e20f500009003200e30f5000e6
:10130c000a0032000c0037009e00900061588800e3
:10131c00090037009e009000e15888000600370055
:10132c009e00900061598800030037009e009000d9
:10133c00e1598800000000000080fa00000006005f
:10134c000000fa000060fe000080fa0000000600b9
:10135c000400fa00204798002e4090000080fb000b
:10136c00800040000000210000804000100f780039
:10137c002e4090008080fb00c01c210000804000ab
:10138c00104078000080fb00106088009e00780000
:10139c00216088001e0078000000d10030618800b8
:1013ac002e4090008080fb00202b2100008040000c
:1013bc0010407800614060000080fb00610060001c
:1013cc004200dd00c2708000b1ff2f00810061007f
:1013dc0001007000c07088002e4090008080fb00df
:1013ec00803921000080400010407800614060008e
:1013fc000080fb00610060004300dd00c2708000d3
:10140c0071ff2f008100610001007000c070880026
:10141c002e4090008080fb00e047210000804000bf
:10142c0010407800614060000080fb0061006000ab
:10143c004400dd00c2708000f1fe2f0081006100cd
:10144c0001007000c07088000080fa0000000600e7
:10145c000000fa00516921009140780020c3b300cc
:10146c0080cf50000200360020c3b30095f6b700c1
:10147c000080fa00000006000000fa0010708000e6
:10148c00e0b48800d1b48000e0b480000080680033
:10149c00f0b48800e0b48000d0b48800f0b48000d0
:1014ac00640060000000e0002a003200e0b480001c
:1014bc00640060000000e0000300320060b48000b3
:1014cc0070b488002300370060b4800080b48800ba
:1014dc008c36ef0090b480000000e80090b48800d7
:1014ec00a0d6bf000004e00004003200a0d6bf006c
:1014fc000040e900a0f6b7001600370080b4800069
:10150c00ee0f50000b003e0010c0b300a0f6b70069
:10151c0095d6bf000004e0000e003200a2d6bf003a
:10152c000040e90095f6b70095d6bf0088ff07008c
:10153c000800370080b48000ef0f50000300360025
:10154c0095d6bf00a2f6b70002003700a2d6bf00a6
:10155c0095f6b700f0b48000780060000000e00061
:10156c000400320060b480000000e80060b4880021
:10157c000621ef000080fa00000006000000fa00cf
:10158c00262cef001aff070019aea900605f2a0095
:10159c00a10020003806070019aea80010ff0700b4
:1015ac000080fa00000006000200fa002506070081
:1015bc000000eb0012ff070080262000800078005e
:1015cc000000eb0043ff07008066210080007800dc
:1015dc000000eb0020ff070020a42000d30507002b
:1015ec00e0a220007605070020708000d0b48800af
:1015fc0040ba2700a10620001f060700184ea800bd
:10160c00186ea800188ea8000080eb0020608800df
:10161c00262cef00f6fe070019aea800a176ef000d
:10162c00a1d6bf00a0f6b7006676ef00a276ef0059
:10163c00a2d6bf0096f6b70096d6bf0095f6b700b7
:10164c009776ef000000eb00af00070070a32600b8
:10165c0041212000080607006105070038ff07003c
:10166c0010708000610060000000e0000400320097
:10167c0010708000620060000000e00001003a0081
:10168c00beff070040b38000004f780040b38000dd
:10169c004800de000040780066f6b7006166210065
:1016ac009140780080c8b30080cf500007003e0006
:1016bc00616621009140780070c7b30080cf500064
:1016cc00020036006676ef000200370010c0b3004f
:1016dc0066f6b70000c8b3009e40780080cf50007b
:1016ec001500360066d6bf000004e000080032008a
:1016fc001e80fb0001f82f0080804000505e21000e
:10170c00008040001040780098f6b70007003700c2
:10171c001e80fb0001f82f00808040004056210005
:10172c00008040001040780098f6b70010c0b3005d
:10173c0099f6b7001a0037001e4078000004e0004c
:10174c001500350066d6bf000004e000080032002a
:10175c001e80fb000108200080805000505e21009c
:10176c00008040001040780098f6b7000700370062
:10177c001e80fb0001082000808050004056210094
:10178c00008040001040780098f6b70000c0eb00d5
:10179c0099f6b700020037009876ef009976ef00c3
:1017ac00916921009140780097d6bf0080cf5000fe
:1017bc0029003a00816921009140780020c3b300d0
:1017cc0080cf500003003e0098d6bf0095f6b700be
:1017dc002f003700516921009140780098d6bf0046
:1017ec0080cf5000130031008169210091407800b6
:1017fc0020c3b30080cf50000c003600516921008b
:10180c009140780010c3b30080cf500003003e001d
:10181c0020c3b30095f6b7000600370095d6bf007d
:10182c000040e80095f6b7000200370098d6bf00dc
:10183c0095f6b700516921009140780098d6bf0009
:10184c0080cf50001200360095d6bf000040e90052
:10185c0095f6b7000e00370097d6bf000004e000e5
:10186c00030032009776ef009576ef000800370002
:10187c0099d6bf0097f6b70097d6bf000004e000da
:10188c000200340019eea8000100370019eea9007f
:10189c0095d6bf000004e00013003200516921000e
:1018ac009140780096d6bf0080cf500010003200d7
:1018bc0095d6bf00a6fe0700516921009140780023
:1018cc0010c3b30080cf500003003e00401f200027
:1018dc000d00070002003700406a20000a000700d4
:1018ec003ffe070002003700262cef0040fe0700e9
:1018fc00a01c2300310020005f05070095d6bf0017
:10190c0096f6b70055ff37000200fa00000f78007a
:10191c00198ea80050042000010020005605070075
:10192c00196ea80050042000010020005205070089
:10193c00198ea90050042000010020004e0507005c
:10194c00196ea90050042000010020004a05070070
:10195c00194ea90050042000010020004605070084
:10196c00196ea80050042000010020004205070059
:10197c00196ea90050042000010020003e0507004c
:10198c00196ea80050042000010020003a05070041
:10199c00196ea90050042000010020003605070034
:1019ac00194ea80050042000010020003205070049
:1019bc00196ea80050042000010020002e0507001d
:1019cc00196ea90050042000010020002a05070010
:1019dc00196ea80050042000010020002605070005
:1019ec00196ea900500420000100200022050700f8
:1019fc00196ea80050042000010020001e050700ed
:101a0c00196ea90050042000010020001a050700df
:101a1c00196ea800500420000100200016050700d4
:101a2c00196ea900500420000100200012050700c7
:101a3c00196ea80050042000010020000e050700bc
:101a4c00196ea90050042000010020000a050700af
:101a5c00196ea800500420000100200006050700a4
:101a6c00196ea90050042000010020000205070097
:101a7c00008020001e0060000000e0000200320028
:101a8c00194ea80001003700194ea900500420007f
:101a9c0001002000f8040700196ea8005004200073
:101aac0001002000f4040700196ea9005004200066
:101abc0001002000f0040700004020001e00600020
:101acc000000e00002003200194ea80001003700af
:101adc00194ea9005004200001002000e604070064
:101aec00196ea8005004200001002000e204070039
:101afc00196ea9005004200001002000de0407002c
:101b0c00002020001e0060000000e00002003200f7
:101b1c00194ea80001003700194ea90050042000ee
:101b2c0001002000d4040700196ea8005004200006
:101b3c0001002000d0040700196ea90050042000f9
:101b4c0001002000cc040700001020001e006000e3
:101b5c000000e00002003200194ea800010037001e
:101b6c00194ea9005004200001002000c2040700f7
:101b7c00196ea8005004200001002000be040700cc
:101b8c00196ea9005004200001002000ba040700bf
:101b9c00000820001e0060000000e000020032007f
:101bac00194ea80001003700194ea900500420005e
:101bbc0001002000b0040700196ea800500420009a
:101bcc0001002000ac040700196ea900500420008d
:101bdc0001002000a8040700000420001e00600083
:101bec000000e00002003200194ea800010037008e
:101bfc00194ea90050042000010020009e0407008b
:101c0c00196ea80050042000010020009a0407005f
:101c1c00196ea90050042000010020009604070052
:101c2c00000220001e0060000000e00002003200f4
:101c3c00194ea80001003700194ea90050042000cd
:101c4c00010020008c040700196ea800500420002d
:101c5c000100200088040700196ea9005004200020
:101c6c0001002000840407009e0078007080600052
:101c7c000000e00002003200194ea80001003700fd
:101c8c00194ea90050042000010020007a0407001e
:101c9c00196ea800500420000100200076040700f3
:101cac00196ea900500420000100200072040700e6
:101cbc009e007800688060000000e00002003200a6
:101ccc00194ea80001003700194ea900500420003d
:101cdc000100200068040700196ea80050042000c1
:101cec000100200064040700196ea90050042000b4
:101cfc0001002000600407009e00780064806000f2
:101d0c000000e00002003200194ea800010037006c
:101d1c00194ea900500420000100200056040700b1
:101d2c00196ea80050042000010020005204070086
:101d3c00196ea90050042000010020004e04070079
:101d4c009e007800628060000000e000020032001b
:101d5c00194ea80001003700194ea90050042000ac
:101d6c000100200044040700196ea8005004200054
:101d7c000100200040040700196ea9005004200047
:101d8c00010020003c0407001e0078006100600088
:101d9c00004078000004e00002003200194ea80058
:101dac0001003700194ea90050042000010020004a
:101dbc0031040700196ea800500420000100200017
:101dcc002d040700196ea90050042000010020000a
:101ddc0029040700196ea8005004200001002000ff
:101dec0025040700196ea9005004200001002000f2
:101dfc0021040700196ea8005004200001002000e7
:101e0c001d040700196ea9005004200001002000d9
:101e1c0019040700196ea8005004200001002000ce
:101e2c0015040700196ea9005004200001002000c1
:101e3c0011040700196ea8005004200001002000b6
:101e4c000d040700196ea9005004200001002000a9
:101e5c0009040700198ea8000080fa000000060093
:101e6c000000fa0000c820001013880010002000a9
:101e7c0020138800c0002800001388000080fa009e
:101e8c00000006000400fa00000f7800110798000b
:101e9c000000000000138000620060000000e00001
:101eac00fcff3a001e0078001000780040138800f8
:101ebc000000000001138000000220000080600080
:101ecc000000e000fbff3a001e0090004113800070
:101edc00010878000080fa00000006001800fa00e3
:101eec00100f9800210f9800320f98000000eb00a3
:101efc00000f78000000eb00100798000000eb00ca
:101f0c00700798000000eb00000f980020002000e4
:101f1c00600798002e0890000000d100200f980058
:101f2c001e0890000000e00005003a000000eb00e5
:101f3c0050079800700047002007980004003700f5
:101f4c00ee009000510798009e0890002107980021
:101f5c003e0890000000e00005003a000000eb0095
:101f6c00400798006e0047003007980005003700c6
:101f7c00ee00900041079800be08900031079800d1
:101f8c000000000000138000620060000000e00010
:101f9c00fcff3a001b003700001380006200600059
:101fac000000e00008003a002e00900010007800bd
:101fbc0040138800ae0090005e009000008040004e
:101fcc00200798001e0fe80001138000000220007b
:101fdc00008060000000e0000a003a003e00900023
:101fec004113800001087800be0090004e00900064
:101ffc0000804000300798001e0090000000e800b0
:10200c00100798002e0890009e007800808f5000da
:10201c00e1ff39000f00370001138000000220009f
:10202c00008060000000e0000a003a003e009000d2
:10203c004113800001087800be0090004e00900013
:10204c0000804000300798001e0090000000e8005f
:10205c00100798009e0090002e089000808f500072
:10206c00edff39001e0078000080fa000000060029
:10207c000400fa00100798008e0078000e80e8002b
:10208c0080ff07001e0078000080fa0000000600a8
:10209c000600fa00000f780011079800220798003c
:1020ac00ae0090001e007800010178009e009000a8
:1020bc008aff07000080fa00000006000000fa000a
:1020cc001113800000402000008060000000e00040
:1020dc0002003a000000eb00010037001000200065
:1020ec000080fa00000006000000fa0000138000d7
:1020fc000080fa00000006000000fa0060002000da
:10210c0010608800042cef00062cef000a2cef0066
:10211c001a2cef001e2cef00000820000061880034
:10212c00000820000062880000082000006388007e
:10213c0000402800e3c1200011322400d2bc2a0048
:10214c008209780081097800106188000040200025
:10215c00e3c1200011322400d2bc2a00820978008d
:10216c00810978001062880000402000e3c1200043
:10217c0011322400d2bc2a0082097800810978002f
:10218c0010638800b00f2000e3c12000113224003e
:10219c00d2bc2a008209780081097800206188006d
:1021ac00b00f2000e3c1200011322400d2bc2a0061
:1021bc00820978008109780020628800b00f200025
:1021cc00e3c1200011322400d2bc2a00820978001d
:1021dc008109780020638800262cef00462cef0044
:1021ec00662cef00282cef00482cef00682cef0039
:1021fc004006200050618800400620005062880094
:10220c0040062000506388002c2cef004c2cef0073
:10221c006c2cef00322cef00522cef00722cef00e4
:10222c00342cef00542cef00742cef00382cef0002
:10223c00582cef00782cef003a2cef005a2cef00c2
:10224c007a2cef003c2cef005c2cef007c2cef0088
:10225c003e2cef005e2cef007e2cef00004028009f
:10226c00006088000080fa00000006000000fa0000
:10227c000080fa00000006000000fa0031408000e7
:10228c0000202000008060000000e000020032000e
:10229c00f6ff07000728a9000080fa0000000600de
:1022ac000000fa000080fa00000006000000fa00ae
:1022bc003140800000202000008060000000e00021
:1022cc0002003200f6ff07000bc8a9000080fa00dc
:1022dc00000006000000fa000080fa000000060072
:1022ec000000fa00314080000020200000806000d7
:1022fc000000e00002003200f6ff07000be8a90026
:10230c000080fa00000006000000fa000080fa00cd
:10231c00000006000000fa00314080000020200080
:10232c00008060000000e00002003200f6ff0700b1
:10233c000c08a9000080fa00000006000000fa005a
:10234c0014aea90018aea80014cea90018cea8008f
:10235c00b008200001002000c702070018aea90039
:10236c00b008200001002000c302070018cea9000d
:10237c000080fa00000006000000fa0014aea9006c
:10238c0018aea90014cea90018cea800b0082000e1
:10239c0001002000b802070014aea80014cea8005b
:1023ac000080fa00000006000400fa0020479800a4
:1023bc0014aea90014cea900ae409000014f7800d5
:1023cc0080c0b30010479800140037001e407800fe
:1023dc000004e00002003d0018aea8000100370028
:1023ec0018aea9001e40780000404000004f780055
:1023fc0018cea80070112000010020009e020700da
:10240c0018cea900100d2000010020009a02070030
:10241c001e4090000040e900104798001e409000bc
:10242c000004e000e9ff3a0014aea8000080fa00b6
:10243c00000006000200fa0014aea80014cea90099
:10244c0080c0b300104798001400370050042000df
:10245c00010020008802070018cea8001e4078005a
:10246c0000404000004f7800b17080000002200056
:10247c00008060000000e000020032001e04a0009a
:10248c0002003700e0cfb3001e4f600018cea90049
:10249c001e4090000040e900104798001e4090003c
:1024ac000004e000e9ff3a001e4078000080fa00ca
:1024bc00000006000200fa0014aea80014cea90019
:1024cc0018cea80050042000010020006a0207006a
:1024dc00b07080004500de0061406000004f780065
:1024ec0018cea9001e4078000080fa0000000600fb
:1024fc000000fa0014aea90018aea90014cea90071
:10250c0050042000010020005b02070018cea80038
:10251c00b0082000010020005702070018cea900c7
:10252c0014aea8000080fa00000006000000fa00bb
:10253c0014aea90018aea80014cea90018cea8009d
:10254c0050042000010020004b02070018cea90007
:10255c0050042000010020004702070014aea80020
:10256c000080fa00000006000000fa00003a80002b
:10257c000080fa00000006000200fa00faff0700d3
:10258c00000f78001e007800240007000004e00013
:10259c000200320000002800710007001e007800c5
:1025ac002a0007000004e0000200320000002400b2
:1025bc006b0007001e007800320007000004e000ea
:1025cc000200320000202000650007001e00780089
:1025dc003a0007000004e00002003200000820006e
:1025ec005f0007001e007800420007000004e000b6
:1025fc000200320000042000590007001e00780081
:10260c004a0007000004e000020032000001200034
:10261c00530007000080fa00000006000400fa00d6
:10262c00100798000040eb00004f78001e0090004f
:10263c000000e00002003d0010c0b300004f780025
:10264c001e4078000080fa00000006000400fa002a
:10265c00100798000040eb00004f78009e0090009f
:10266c0000002400008060000000e0000200320046
:10267c0010c0b300004f78001e4078000080fa00b4
:10268c00000006000400fa00100798000040eb0060
:10269c00004f78009e009000002020000080600019
:1026ac000000e0000200320010c0b300004f7800c0
:1026bc001e4078000080fa00000006000400fa00ba
:1026cc00100798000040eb00004f78009e0090002f
:1026dc0000082000008060000000e00002003200d2
:1026ec0010c0b300004f78001e4078000080fa0044
:1026fc00000006000400fa00100798000040eb00f0
:10270c00004f78009e0090000004200000806000c4
:10271c000000e0000200320010c0b300004f78004f
:10272c001e4078000080fa00000006000400fa0049
:10273c00100798000040eb00004f78001e0090003e
:10274c00700060000000e0000200320010c0b30016
:10275c00004f78001e4078000080fa000000060050
:10276c000200fa00000f78009e80ea00003a800018
:10277c0000806000003a88000080fa00000006002b
:10278c000000fa004027ef000080fa00000006006d
:10279c000200fa00004f780010c0b30037000700a9
:1027ac008009210011002000b301070000c8b3000c
:1027bc009e40780080cf5000030032001e4078000d
:1027cc002e00070001003700000000000080fa0016
:1027dc00000006000600fa0020079800d7fe07004c
:1027ec00c0c7b300f0fe070032ff07002e009000b8
:1027fc003ef807002047980010c0b300104798001f
:10280c001700370000ccb300004f78009e409000ba
:10281c002e40900080cf500002003a0000c4b3005c
:10282c00004f78001e407800dffe070021ff0700f4
:10283c002e00900010407800004f78002e00900081
:10284c000000e800200798001e407800d6fe070024
:10285c0018ff07001e4090000040e8001047980049
:10286c009e4090002e40900080cf5000e5ff340039
:10287c00c1fe07000080fa00000006000200fa000a
:10288c00004f7800adfe0700c0c7b300c6fe0700be
:10289c0008ff07000040eb00c3fe070005ff070020
:1028ac001e407800c0fe070002ff0700b2fe0700c2
:1028bc000080fa00000006000200fa00004f7800c9
:1028cc00b07d2900a10220006b01070080c3b3007a
:1028dc00eaff0700d08220000100200066010700fb
:1028ec0090c3b300e5ff0700d08220000100200058
:1028fc006101070040c1b300e0ff0700d082200057
:10290c00010020005c0107009e4078006fc0600051
:10291c000047b000d9ff0700d08220000100200042
:10292c00550107001e80fb004400de0000407800cb
:10293c004045b000d1ff0700d082200001002000ec
:10294c004d010700c0c6b300ccff070090742f00e8
:10295c00410d20004801070080c3b300c7ff0700ea
:10296c00d08220000100200043010700c0c0b3004a
:10297c00c2ff0700d0822000010020003e010700aa
:10298c0010c0b300bdff070010132200210020006f
:10299c00390107000080fa00000006000000fa0070
:1029ac000081200000588800100220001058880078
:1029bc00062bef0000002100205888000a2bef00a6
:1029cc00082bef000c2bef000e2bef000088a9005a
:1029dc00102bef00122bef00162bef000000210044
:1029ec00a05888001a2bef00182bef001c2bef00bf
:1029fc001e2bef0001c8a900202bef00222bef00ab
:102a0c00262bef0000002100205988002a2bef0014
:102a1c00282bef002c2bef002e2bef000308a90026
:102a2c00302bef00322bef00362bef000000210093
:102a3c00a05988003a2bef00382bef003c2bef000d
:102a4c003e2bef000488a90001eba8000080fa00df
:102a5c00000006000000fa000080fa0000000600ea
:102a6c000000fa0000408000700060000000e000f0
:102a7c0002003200f7ff07000088a9000080fa006e
:102a8c00000006000000fa000080fa0000000600ba
:102a9c000000fa000140800000002400008060006b
:102aac000000e00002003200f6ff070001c8a90098
:102abc000080fa00000006000000fa000080fa0016
:102acc00000006000000fa001140800000102000f9
:102adc00008060000000e00002003200f6ff0700fa
:102aec000308a9000080fa00000006000000fa00ac
:102afc000080fa00000006000000fa002040800070
:102b0c00700060000000e00002003200f7ff0700d8
:102b1c000488a9000080fa00000006000000fa00fa
:102b2c000621ef00b0542100600888000003280043
:102b3c008008880020b680000000e00002003a0007
:102b4c00005e21001e00070000e8a90020e8a80094
:102b5c00c676ef000080fa00000006000200fa00c2
:102b6c00000f78009e00780061088800c676ef00a0
:102b7c000080fa00000006000000fa0060088000e7
:102b8c000080fa00000006000200fa00000f780036
:102b9c009e00780031088800c676ef000080fa00ad
:102bac00000006000000fa00300880000080fa00e7
:102bbc00000006000000fa000080fa000000060089
:102bcc000200fa00000f780020e8a9009e007800af
:102bdc0021b6880020e8a8000080fa00000006005a
:102bec000000fa00c676ef0020e8a80011e1a8006a
:102bfc000080fa00000006000000fa0011e1a900b4
:102c0c0020e8a9000080fa00000006000200fa008b
:102c1c00616c210091407800014f78001e407800d3
:102c2c000004e00001003200c676ef001e40780080
:102c3c000080fa00000006000000fa00c7d6bf00b2
:102c4c000080fb000080fa00000006000000fa0083
:102c5c00c776ef000080fa00000006000000fa00c2
:102c6c00042eef00182eef00f001200000708800f9
:102c7c0030382000a07088000c2eef00202eef00c2
:102c8c0070002000507088001e2eef00062eef0002
:102c9c001a2eef000e2eef00222eef00113a8000bc
:102cac00f00b200000816000600420007105200002
:102cbc00237420008049780081497800824978008b
:102ccc0070c2b300cce6b70080c2b300cde6b7004b
:102cdc0090c2b300cee6b700103a80000001780035
:102cec000260a00060042000710520002374200005
:102cfc00804978008149780082497800084ea80004
:102d0c00086ea800088ea800606921000700070063
:102d1c000268a9002268a8000080fa0000000600e2
:102d2c000000fa000080fa00000006000200fa0021
:102d3c00000f78002268a9009e00780051b6880028
:102d4c002268a8000080fa00000006000200fa00c9
:102d5c00000f78001e007800f4ff07000080fa00d6
:102d6c00000006000000fa0000202300203a880032
:102d7c004827ef004e27ef00d0122000303a880091
:102d8c006027ef006227ef006427ef006627ef0053
:102d9c006a27ef006c27ef006e27ef00120020006f
:102dac0080072000a109200033742000804978009e
:102dbc0081497800824978001200200060042000cc
:102dcc007105200023742000804978008149780027
:102ddc008249780000000000103a80006100600019
:102dec000000e000fcff3a0000000000113a8000f7
:102dfc0000022000008060000000e000fbff3200b9
:102e0c000080fa00000006000200fa00000f7800b3
:102e1c0021028000200f2000008060001e00700046
:102e2c00200288000080fa00000006000000fa0072
:102e3c00c3e8a80000000000000000000080fa00b9
:102e4c00000006000000fa0084ff070024000700c1
:102e5c00c4ff070002fc0700a7fc07002fff0700b8
:102e6c00cefe0700f1ff070000022000e6ff07007e
:082e7c000080fa0000000600ce
:020000040000fa
:102e8400f03fb1000180b10006003500ee030900f7
:102e940000000000403fb1000180b100fbff3d0095
:102ea4001000b000203fb00002003500008009008f
:082eb400000000000000060010
:020000040000fa
:102ebc000200fa00000f78009e00780041b68800ee
:102ecc00ffff37000000fa00406a210080077800fd
:102edc00c06b2100000188000080fa000000060091
:102eec000000fa0041428000000027000100700041
:102efc004042880011428000f0ff280000806000f2
:102f0c0000c0a000104288000080fa0000000600fb
:020000040000fa
:04af0000ffff00004f
:020000040000fa
:04af2000ffff00002f
:020000040000fa
:04af300078ff0000a6
:020000040000fa
:04af38007bff00009b
:020000040000fa
:04af4000f8ff000016
:020000040000fa
:04af4800ffff000007
:020000040000fa
:04af5000fdff000001
:020000040000fa
:04af580000000000f5
:020000040000fa
:04af600000000000ed
:020000040000fa
:04af680000000000e5
:020000040000fa
:04af700000000000dd
:020000040000fa
:04af7800feff0000d8
:020000040000fa
:04af8000ffff0000cf
:020000040000fa
:04af8800ffff0000c7
:00000001FF
